:100000000C9434000C9451000C9451000C94510049
:100010000C9451000C9451000C9451000C9451001C
:100020000C9451000C9451000C9451000C9451000C
:100030000C9451000C9451000C94C0010C9451008C
:100040000C9451000C9451000C9451000C945100EC
:100050000C9451000C9451000C9451000C945100DC
:100060000C9451000C94510011241FBECFEFD8E026
:10007000DEBFCDBF11E0A0E0B1E0E8E3F7E002C0F1
:1000800005900D92A831B107D9F721E0A8E1B1E0C0
:1000900001C01D92A232B207E1F70E94D1010C9477
:1000A0009A030C940000F89484B5826084BD85B5F1
:1000B000856085BDEEE6F0E080818260808389E026
:1000C00087BD87B18F6087B988B18F6088B98FEF9E
:1000D00084B915B88AB181608AB9789408958F92ED
:1000E0009F92AF92BF92CF92DF92EF92FF92CF9307
:1000F000DF936B017C0120E030E040E251E40E949C
:10010000DE0188239CF420E030E04AE754E4C70194
:10011000B6010E94050360931A0170931B0180933E
:100120001C0190931D0181E08093180120E030E0D4
:1001300040E251E4C701B6010E9400038823ECF0BD
:1001400020E030E048EC52E4C701B6010E94DE0135
:1001500088239CF420E030E048EC52E4C701B6016B
:100160000E94050360931A0170931B0180931C0188
:1001700090931D0182E08093180120E030E048EC6C
:1001800052E4C701B6010E9400038823ECF020E08E
:1001900030E04AE754E4C701B6010E94DE0188233B
:1001A0009CF420E030E040E251E4C701B6010E9437
:1001B000050360931A0170931B0180931C019093B7
:1001C0001D0183E08093180120E030E04AE754E409
:1001D000C701B6010E94000388235CF0C0921A0197
:1001E000D0921B01E0921C01F0921D0184E08093EB
:1001F000180180901A0190901B01A0901C01B090F2
:100200001D01C501B4010E9455027B01CB0168EEBE
:1002100073E00E94720360931F0120E030E048EC1D
:1002200052E4C501B4010E94E3010E945502CAE0F4
:10023000D0E0CB01BE010E9472038093210120E037
:1002400030E040E251E4C501B4010E94E3010E94A4
:100250005502CB01BE010E94720380932001C701A9
:10026000BE010E94720380931E01809119018230A9
:1002700009F43FC028F4882351F08130F9F075C0AB
:10028000833009F451C0843009F469C06EC088B16C
:100290008E7F88B980911801813041F4E0911F016F
:1002A000F0E0EC5FFE4F808185B95FC0E0911F01F7
:1002B000F0E0E25FFE4F808185B957C088B1816070
:1002C00088B915B888B18D7F88B9809118018230BE
:1002D00041F4E0912101F0E0EC5FFE4F808185B9AF
:1002E00044C0E0912101F0E0E25FFE4F808185B9DA
:1002F0003CC088B1826088B915B888B18B7F88B955
:1003000080911801833041F4E0912001F0E0EC5F2E
:10031000FE4F808185B929C0E0912001F0E0E25FC5
:10032000FE4F808185B921C088B1846088B915B835
:1003300088B1877F88B980911801843041F4E091B9
:100340001E01F0E0EC5FFE4F808185B90EC0E091A8
:100350001E01F0E0E25FFE4F808185B906C088B1E2
:10036000886088B915B810921901DF91CF91FF907C
:10037000EF90DF90CF90BF90AF909F908F900895B7
:100380001F920F920FB60F9211248F938091190133
:100390008F5F809319018F910F900FBE0F901F9068
:1003A00018950E94530060910001709101018091A5
:1003B0000201909103010E946F00F5CF0E948B0211
:1003C00008F481E008950E94F7010C94C6020E948F
:1003D000BF0258F00E94B80240F029F45F3F29F0B4
:1003E0000C94AF0251110C94FA020C94B5020E94C5
:1003F000D70268F39923B1F3552391F3951B550B5D
:10040000BB27AA2762177307840738F09F5F5F4FE7
:10041000220F331F441FAA1FA9F335D00E2E3AF026
:10042000E0E832D091505040E695001CCAF72BD03E
:10043000FE2F29D0660F771F881FBB1F261737078F
:100440004807AB07B0E809F0BB0B802DBF01FF27C1
:1004500093585F4F3AF09E3F510578F00C94AF02ED
:100460000C94FA025F3FE4F3983ED4F386957795B7
:100470006795B795F7959F5FC9F7880F911D96957A
:10048000879597F90895E1E0660F771F881FBB1FD6
:10049000621773078407BA0720F0621B730B840B83
:1004A000BA0BEE1F88F7E09508950E945C026894ED
:1004B000B1110C94FA0208950E94DF0288F09F5750
:1004C00098F0B92F9927B751B0F0E1F0660F771F78
:1004D000881F991F1AF0BA95C9F714C0B13091F06E
:1004E0000E94F902B1E008950C94F902672F782F69
:1004F0008827B85F39F0B93FCCF386957795679533
:10050000B395D9F73EF490958095709561957F4F9E
:100510008F4F9F4F0895990F0008550FAA0BE0E8E1
:10052000FEEF16161706E807F907C0F012161306B5
:10053000E407F50798F0621B730B840B950B39F4F5
:100540000A2661F0232B242B252B21F408950A265B
:1005500009F4A140A6958FEF811D811D089597F99B
:100560009F6780E870E060E008959FEF80EC089559
:1005700000240A9416161706180609060895002482
:100580000A9412161306140605060895092E0394FC
:10059000000C11F4882352F0BB0F40F4BF2B11F470
:1005A00060FF04C06F5F7F4F8F4F9F4F089557FDCF
:1005B0009058440F551F59F05F3F71F04795880FD1
:1005C00097FB991F61F09F3F79F087950895121668
:1005D00013061406551FF2CF4695F1DF08C0161614
:1005E00017061806991FF1CF8695710561050894C5
:1005F0000895E894BB2766277727CB0197F90895DC
:100600000E948B0208F48FEF08950E9418030C9447
:10061000C6020E94B80238F00E94BF0220F0952363
:1006200011F00C94AF020C94B50211240C94FA0250
:100630000E94D70270F3959FC1F3950F50E0551FAC
:10064000629FF001729FBB27F00DB11D639FAA2727
:10065000F00DB11DAA1F649F6627B00DA11D661F76
:10066000829F2227B00DA11D621F739FB00DA11D97
:10067000621F839FA00D611D221F749F3327A00D51
:10068000611D231F849F600D211D822F762F6A2FED
:1006900011249F5750409AF0F1F088234AF0EE0F52
:1006A000FF1FBB1F661F771F881F91505040A9F77F
:1006B0009E3F510580F00C94AF020C94FA025F3F0C
:1006C000E4F3983ED4F3869577956795B795F795BB
:1006D000E7959F5FC1F7FE2B880F911D9695879533
:1006E00097F9089597FB072E16F4009407D077FD2D
:1006F00009D00E94860307FC05D03EF490958195B1
:100700009F4F0895709561957F4F0895AA1BBB1B5D
:1007100051E107C0AA1FBB1FA617B70710F0A61B01
:10072000B70B881F991F5A95A9F780959095BC0122
:08073000CD010895F894FFCFFC
:100738009A49A645BF86DBCFE6EDFD87FFEF3F066A
:080748005B4F666D7D077F6FBA
:00000001FF
