S00F00004578616D706C652E7372656349
S11300000C9434000C9451000C9451000C94510045
S11300100C9451000C9451000C9451000C94510018
S11300200C9451000C9451000C9451000C94510008
S11300300C9451000C9451000C94C0010C94510088
S11300400C9451000C9451000C9451000C945100E8
S11300500C9451000C9451000C9451000C945100D8
S11300600C9451000C94510011241FBECFEFD8E022
S1130070DEBFCDBF11E0A0E0B1E0E6EBF7E002C0E7
S113008005900D92A631B107D9F721E0A6E1B1E0C0
S113009001C01D92A032B207E1F70E94D1010C9475
S11300A0D9030C940000F89484B5826084BD85B5AE
S11300B0856085BDEEE6F0E080818260808389E022
S11300C087BD87B18F6087B988B18F6088B98FEF9A
S11300D084B915B88AB181608AB9789408958F92E9
S11300E09F92AF92BF92CF92DF92EF92FF92CF9303
S11300F0DF936B017C0120E030E040E251E40E9498
S1130100E00188239CF420E030E04AE754E4C7018E
S1130110B6010E94440360931801709319018093FF
S11301201A0190931B0181E08093160120E030E0D6
S113013040E251E4C701B6010E943F038823ECF07A
S113014020E030E048EC52E4C701B6010E94E0012F
S113015088239CF420E030E048EC52E4C701B60167
S11301600E944403609318017093190180931A014B
S113017090931B0182E08093160120E030E048EC6C
S113018052E4C701B6010E943F038823ECF020E04B
S113019030E04AE754E4C701B6010E94E001882335
S11301A09CF420E030E040E251E4C701B6010E9433
S11301B04403609318017093190180931A0190937A
S11301C01B0183E08093160120E030E04AE754E409
S11301D0C701B6010E943F0388235CF0C092180156
S11301E0D0921901E0921A01F0921B0184E08093ED
S11301F016018090180190901901A0901A01B090F6
S11302001B01C501B4010E9457027B01CB0168EEBA
S113021073E00E94B10360931D0120E030E048ECDC
S113022052E4C501B4010E94E5010E945702CAE0EC
S1130230D0E0CB01BE010E94B10380931F0120E0F6
S113024030E040E251E4C501B4010E94E5010E949E
S11302505702CB01BE010E94B10380931E01C70166
S1130260BE010E94B10380931C018091170182306A
S113027009F43FC028F4882351F08130F9F075C0A7
S1130280833009F451C0843009F469C06EC088B168
S11302908E7F88B980911601813041F4E0911D016F
S11302A0F0E0EE5FFE4F808185B95FC0E0911D01F3
S11302B0F0E0E45FFE4F808185B957C088B181606A
S11302C088B915B888B18D7F88B9809116018230BC
S11302D041F4E0911F01F0E0EE5FFE4F808185B9AB
S11302E044C0E0911F01F0E0E45FFE4F808185B9D6
S11302F03CC088B1826088B915B888B18B7F88B951
S113030080911601833041F4E0911E01F0E0EE5F2C
S1130310FE4F808185B929C0E0911E01F0E0E45FC1
S1130320FE4F808185B921C088B1846088B915B831
S113033088B1877F88B980911601843041F4E091B7
S11303401C01F0E0EE5FFE4F808185B90EC0E091A4
S11303501C01F0E0E45FFE4F808185B906C088B1DE
S1130360886088B915B810921701DF91CF91FF907A
S1130370EF90DF90CF90BF90AF909F908F900895B3
S11303801F920F920FB60F9211248F938091170131
S11303908F5F809317018F910F900FBE0F901F9066
S11303A018950E9453006091000170910101072E7D
S11303B0000C880B990B0E948F020E946F00F3CFF0
S11303C00E94CA0208F481E008950E94F9010C9485
S11303D005030E94FE0258F00E94F70240F029F43F
S11303E05F3F29F00C94EE0251110C9439030C94E4
S11303F0F4020E94160368F39923B1F3552391F391
S1130400951B550BBB27AA2762177307840738F07F
S11304109F5F5F4F220F331F441FAA1FA9F335D0DC
S11304200E2E3AF0E0E832D091505040E695001C90
S1130430CAF72BD0FE2F29D0660F771F881FBB1F4A
S1130440261737074807AB07B0E809F0BB0B802D28
S1130450BF01FF2793585F4F3AF09E3F510578F054
S11304600C94EE020C9439035F3FE4F3983ED4F30A
S1130470869577956795B795F7959F5FC9F7880F28
S1130480911D9695879597F90895E1E0660F771F7A
S1130490881FBB1F621773078407BA0720F0621B0B
S11304A0730B840BBA0BEE1F88F7E09508950E9436
S11304B05E026894B1110C94390308950E941E03DE
S11304C088F09F5798F0B92F9927B751B0F0E1F011
S11304D0660F771F881F991F1AF0BA95C9F714C0C1
S11304E0B13091F00E943803B1E008950C943803C0
S11304F0672F782F8827B85F39F0B93FCCF38695FA
S113050077956795B395D9F73EF490958095709556
S113051061957F4F8F4F9F4F0895E89409C097FBD3
S11305203EF490958095709561957F4F8F4F9F4FC6
S11305309923A9F0F92F96E9BB279395F69587950A
S113054077956795B795F111F8CFFAF4BB0F11F4CD
S113055060FF1BC06F5F7F4F8F4F9F4F16C0882374
S113056011F096E911C0772321F09EE8872F762FAA
S113057005C0662371F096E8862F70E060E02AF0EB
S11305809A95660F771F881FDAF7880F96958795D7
S113059097F90895990F0008550FAA0BE0E8FEEFAC
S11305A016161706E807F907C0F012161306E40733
S11305B0F50798F0621B730B840B950B39F40A262C
S11305C061F0232B242B252B21F408950A2609F40A
S11305D0A140A6958FEF811D811D089597F99F670E
S11305E080E870E060E008959FEF80EC08950024B7
S11305F00A941616170618060906089500240A9484
S113060012161306140605060895092E0394000C09
S113061011F4882352F0BB0F40F4BF2B11F460FF98
S113062004C06F5F7F4F8F4F9F4F089557FD9058C1
S1130630440F551F59F05F3F71F04795880F97FBA2
S1130640991F61F09F3F79F087950895121613065C
S11306501406551FF2CF4695F1DF08C0161617068B
S11306601806991FF1CF86957105610508940895C0
S1130670E894BB2766277727CB0197F908950E9452
S1130680CA0208F48FEF08950E9457030C940503DF
S11306900E94F70238F00E94FE0220F0952311F028
S11306A00C94EE020C94F40211240C9439030E946D
S11306B0160370F3959FC1F3950F50E0551F629F89
S11306C0F001729FBB27F00DB11D639FAA27F00DA7
S11306D0B11DAA1F649F6627B00DA11D661F829FCE
S11306E02227B00DA11D621F739FB00DA11D621FB3
S11306F0839FA00D611D221F749F3327A00D611DD0
S1130700231F849F600D211D822F762F6A2F1124B1
S11307109F5750409AF0F1F088234AF0EE0FFF1FE4
S1130720BB1F661F771F881F91505040A9F79E3F3B
S1130730510580F00C94EE020C9439035F3FE4F30E
S1130740983ED4F3869577956795B795F795E79591
S11307509F5FC1F7FE2B880F911D9695879597F99A
S1130760089597FB072E16F4009407D077FD09D05F
S11307700E94C50307FC05D03EF4909581959F4FD8
S11307800895709561957F4F0895AA1BBB1B51E195
S113079007C0AA1FBB1FA617B70710F0A61BB70BED
S11307A0881F991F5A95A9F780959095BC01CD0192
S10907B00895F894FFCF48
S11307B6E110BF86DBCFE6EDFD87FFEF3F065B4F1B
S10907C6666D7D077F6FE4
S9030000FC
